:020000040800F2
:1000000020080020611B0008750300087703000822
:100010007B0300087F030008830300080000000042
:10002000000000000000000000000000870300083E
:1000300089030008000000008B0300088D030008FE
:100040007B1B00087B1B00087B1B00087B1B000838
:100050007B1B00087B1B00087B1B00087B1B000828
:100060007B1B00087B1B00087B1B00087B1B000818
:100070007B1B00087B1B00087B1B00087B1B000808
:100080007B1B00087B1B00087B1B00087B1B0008F8
:100090007B1B00087B1B00087B1B00087B1B0008E8
:1000A0007B1B00087B1B00087B1B00087B1B0008D8
:1000B0007B1B00087B1B00087B1B00087B1B0008C8
:1000C0007B1B00087B1B00087B1B00087B1B0008B8
:1000D0007B1B0008D51A00087B1B00087B1B00084F
:1000E0007B1B00087B1B00087B1B000800F002F84C
:1000F00000F041F80AA090E8000C82448344AAF181
:100100000107DA4501D100F036F8AFF2090EBAE87E
:100110000F0013F0010F18BFFB1A43F0010318473B
:10012000B0380000D0380000103A24BF78C878C139
:10013000FAD8520724BF30C830C144BF04680C60ED
:10014000704700000023002400250026103A28BF35
:1001500078C1FBD8520728BF30C148BF0B60704739
:10016000642902F02D86002070471FB503F0A6FB1E
:100170001FBD10B510BD02F0EDFE1146FFF7F5FFF3
:1001800000F008F802F00BFF03B4FFF7F2FF03BC26
:1001900001F046FC00BF00F05FF9482001F0ECFBE5
:1001A00001F038FC00F00AFA4FF4E13001F046FCAF
:1001B00000F0D2F900F032FE01F064FB322001F0D1
:1001C000EFFB01F05FFB4C4B02223B21D02000F003
:1001D00043FB494840784849097840EA012000B289
:1001E0004649088087E0444B06223B21D02000F09E
:1001F00033FB414840784049097840EA012000B289
:100200003F4908803C48C0783B49897840EA012052
:1002100000B23C490880384840793749097940EABA
:10022000012000B2384908803549B1F90010334A3D
:10023000B2F90020881A03F07AF80446334A344BA6
:1002400003F0A0F8064602F0B9FE324908602C48D7
:10025000B0F9000003F06BF806462F4A2F4B03F06D
:1002600091F8044602F0AAFE2D490860084601688C
:100270002C48006803F084F92A4908602A4B0622BA
:1002800003213C2000F0E8FA274840782649097805
:1002900040EA012000B2254908802348C07822495D
:1002A000897840EA012000B2214908801E4840793F
:1002B0001D49097940EA012000B21E490880124810
:1002C000B0F900300F48B0F900200D48B0F9001027
:1002D00019A002F033FD1648B0F900301548B0F906
:1002E00000201248B0F900101AA002F027FD4FF4C8
:1002F000FA7001F055FB76E72C0000202400002066
:100300000C0000200E000020100000209A999999FE
:100310009999433F000000207B14AE47E17A643F87
:100320000400002008000020260000201800002003
:100330001C0000201A0000204143433A2020583D71
:100340002564202020593D25642020205A3D256425
:1003500020200A004759524F3A2020583D2564205A
:100360002020593D25642020205A3D256420200A64
:1003700000000000704700BFFEE700BFFEE700BFBF
:10038000FEE700BFFEE77047704770477047000008
:1003900000210020674A126842F48032654B1A60DF
:1003A00000BF644A126802F40030491C10B9B1F56C
:1003B000A06FF6D15F4A126812F4003F01D001200D
:1003C00000E00020012842D15B4A126842F010028E
:1003D000594B1A601A46126822F003021A601A4634
:1003E000126842F002021A60524A5268514B5A6037
:1003F0001A4652685A601A46526842F480625A603D
:100400001A46526822F47C125A601A46526842F424
:10041000E8125A601A46126842F080721A6000BFF1
:10042000444A126812F0007FFAD0424A526822F021
:100430000302404B5A601A46526842F002025A6068
:1004400000BF3C4A526802F00C02082AF9D17047FA
:1004500010B5FFF79DFF10BD10B53648006840F09D
:100460000100344908600846406834490840314971
:10047000486008460068324908402E49086008462E
:10048000006820F4802008600846406820F4FE00E0
:1004900048604FF41F008860FFF7DAFF4FF00060FC
:1004A0002849086010BD10B5002100200022214B12
:1004B0005B6803F00C0121B1042906D0082928D17A
:1004C00007E0214B214C236027E01F4B1F4C23608A
:1004D00023E0184B5B6803F47010164B5B6803F461
:1004E0008032022303EB904022B9194B4343174C4F
:1004F00023600DE00F4B5B6813F4003F04D0144BF6
:100500004343124C236003E00F4B43430F4C2360E3
:1005100003E00D4B0D4C236000BF00BF054B5B6833
:10052000C3F303130B4CE15C084B1B68CB40074C37
:10053000236010BD00100240002002400000FFF8C0
:10054000FFFFF6FE08ED00E000127A003400002004
:1005500000093D003800002008B50121042002F008
:100560007DF94FF48070ADF8000010208DF8030085
:1005700003208DF8020069460E4801F0BBFE4FF4DF
:1005800080710C4801F061FF0121202002F066F922
:100590000420ADF8000010208DF8030003208DF832
:1005A00002006946044801F0A5FE0421024801F05A
:1005B0004CFF08BD000801400014014008B50121AE
:1005C000082002F04BF9C020ADF8000010208DF893
:1005D000030003208DF802006946F84801F08AFE06
:1005E00008BD10B5F548006820F07040F349086078
:1005F0000846006840F0405008600120F04908605B
:10060000F049C1F898014FF0040001F0E4F900202E
:10061000EB4908604FF0040001F0DDF90020E949E2
:10062000C1F8980110BD10B5E448006820F0704092
:10063000E24908600846006840F040500860002029
:10064000E1490860DF49C1F89C014FF0040001F066
:10065000C2F90120DC490860DA49C1F89C014FF079
:10066000040001F0B8F910BD10B50024D3480068AB
:1006700020F07040D14908600846006840F0004012
:1006800008600120CE49086001F0A5F90120CD499C
:10069000C1F8980101F09FF90AE0601CC4B2322C45
:1006A00003DDFFF7C0FF012010BD012001F093F929
:1006B000C64800680028F0D1C349086000BFF3E7CE
:1006C00010B50020C0490860BC48006820F07040A8
:1006D000BA4908600846006840F0405008604FF092
:1006E0000000B849C1F89C014FF0020001F073F915
:1006F0000120B54908604FF0020001F06CF90020BC
:10070000B049C1F8980110BD10B50020AE4908608D
:10071000AA48006820F07040A849086008460068B0
:1007200040F0405008604FF00100A649C1F89C011C
:100730004FF0020001F04FF90120A34908604FF08B
:10074000020001F048F900209E49C1F8980110BD4F
:1007500070B504469948006820F0704097490860D9
:100760000846006840F04050086000209649086044
:1007700005461AE0E009924908604FEA44604FEAF2
:1007800010644FF0020001F026F901208D49C1F8F4
:100790009801022001F01FF900208B4908604FF0FA
:1007A000020001F018F9681CC5B2082DE2DB70BD2B
:1007B00070B5054600248148006820F070407F49EC
:1007C00008600846006840F000400860002616E017
:1007D00000207D4908604FF0020001F0FCF8012084
:1007E0007849C1F898016006040E7848006808B19D
:1007F000601CC4B2022001F0EEF8701CC6B2082ED4
:10080000E6DB15B1FFF75CFF01E0FFF77DFF204657
:1008100070BD70B505460E460024FFF7E2FE28467F
:10082000FFF796FF641CFFF71FFF3046FFF790FFAE
:10083000641CFFF719FFFFF7D4FE681CC0B2FFF776
:1008400087FF641CFFF710FF0020FFF7B1FF04468D
:10085000FFF7E9FE204670BD2DE9F04180460F46C6
:1008600015461E460024FFF7BCFE4046FFF770FF0A
:10087000FFF7FAFE3846FFF76BFFFFF7F5FEFFF7CD
:10088000B0FE08F10100C0B2FFF762FFFFF7ECFE17
:1008900000BF0DE0681EA04204D00120FFF788FFD2
:1008A000305503E00020FFF783FF3055601CC4B2D1
:1008B000AC42EFDBFFF7B7FE2046BDE8F0812DE943
:1008C000F04180460D4616461F460024FFF789FE7C
:1008D0004046FFF73DFFFFF7C7FE2846FFF738FF0A
:1008E000FFF7C2FE00BF06E0385DFFF731FFFFF7FC
:1008F000BBFE601CC4B2B442F6DBFFF794FE0120DD
:10090000BDE8F08170B505460E46144631462846CE
:10091000FFF77FFF2070012070BD37B504460D46FC
:1009200002AB012229462046FFF7C9FF3EBD2DE953
:10093000F8430746884614461D46089E6A464146C7
:100940003846FFF7DFFF28B3601CFF2101FA00F0F3
:10095000C4F108012944491EFF220A41104300F056
:10096000FF09C5F1080006FA00F0C6B2C4F107009D
:1009700006419DF8000000EA090000909DF8000083
:10098000304300909DF8002041463846FFF7C5FFF0
:10099000BDE8F8830020FBE7F8B506460F4614468D
:1009A0001D466A4639463046FFF7ACFF85B1012047
:1009B000A0409DF80010084310E00000000C01402A
:1009C0009C81214200802142988121421C81214248
:1009D0000120A0409DF8001021EA0000C0B2009064
:1009E0009DF8002039463046FFF797FFF8BD00001C
:1009F000FD48006870472DE9F04304460D46DDE9E7
:100A000007670021012041E0DFF8E0C33CF81080D7
:100A1000A0F1010CDFF8D49329F81C8009F1160C21
:100A20003CF81090A0F1010CDFF8C08308F1160823
:100A300028F81C9008F1160C3CF81090A0F1010C5D
:100A400008F1160828F81C9008F1160C3CF81090D4
:100A5000A0F1010C08F1160828F81C9008F1160CFA
:100A60003CF81090A0F1010C08F1160828F81C9031
:100A700008F1160C3CF81090A0F1010C08F11608D2
:100A800028F81C9000F1010C0CF0FF000A28BBDBD9
:100A9000DFF858C3ACF81240ACF82850ACF83E2050
:100AA000ACF85430ACF86A60ACF8807000210020DB
:100AB00008E0DFF838C33CF910C0614400F1010CD4
:100AC0000CF0FF000A28F4DB4FF00A0C91FBFCFC51
:100AD0000FFA8CFCDFF81483A8F814C00021002062
:100AE0000AE0DFF808C30CF1160C3CF910C06144B1
:100AF00000F1010C0CF0FF000A28F2DB4FF00A0CA9
:100B000091FBFCFC0FFA8CF8DFF8E0C2ACF82A800D
:100B1000002100200AE0DFF8D4C20CF12C0C3CF9D3
:100B200010C0614400F1010C0CF0FF000A28F2DB58
:100B30004FF00A0C91FBFCFC0FFA8CF8DFF8ACC20A
:100B4000ACF84080002100200AE0DFF8A0C20CF1E0
:100B5000420C3CF910C0614400F1010C0CF0FF00A4
:100B60000A28F2DB4FF00A0C91FBFCFC0FFA8CF820
:100B7000DFF878C2ACF85680002100200AE0DFF8E8
:100B80006CC20CF1580C3CF910C0614400F1010C2E
:100B90000CF0FF000A28F2DB4FF00A0C91FBFCFC82
:100BA0000FFA8CF8DFF844C2ACF86C80002100200A
:100BB0000AE0DFF838C20CF16E0C3CF910C0614459
:100BC00000F1010C0CF0FF000A28F2DB4FF00A0CD8
:100BD00091FBFCFC0FFA8CF8DFF810C2ACF88280B5
:100BE000BDE8F08338B50446032302226B21D020F0
:100BF0000094FFF79CFE38BD38B50446022304225A
:100C00001B21D0200094FFF792FE38BD38B5044672
:100C1000022304221C21D0200094FFF788FE38BD57
:100C200010B50446234606226B21D020FFF7B4FE00
:100C300010BD10B56E4B01227521D020FFF70CFEC0
:100C40006B48007810BD10B5FFF7F3FF682801D19D
:100C5000012010BD0020FCE710B504462346052204
:100C60006A21D020FFF798FE10BD10B50446234638
:100C700001223721D020FFF78FFE10BD10B54FF4B1
:100C800080715C4801F0C7FB012800D110BD002035
:100C9000FCE72DE9FC4704460D4616461F46DDE9F4
:100CA0000A89FFF7EBFF002877D0514B0E223B213A
:100CB000D020FFF7D1FD4E4840784D49097840EAF1
:100CC000012000B24C4908804948C07848498978D9
:100CD00040EA012000B2494908804548407944492A
:100CE000097940EA012000B2454908804048407A2D
:100CF0003F49097A40EA012000B2424908803C4855
:100D0000C07A3B49897A40EA012000B23E49088016
:100D10003748407B3649097B40EA012000B23B4915
:100D200008800846B0F900003749B1F90010CDE954
:100D300000103448B0F900303148B0F900202F4895
:100D4000B0F900102C48B0F90000FFF754FE274816
:100D5000808A20802548408D28802448B0F84000B3
:100D600030802248B0F8560029490988401A00B25C
:100D700038801E48B0F86C0026490988401A00B235
:100D8000A8F800001948B0F8820023490988401AE1
:100D900000B2A9F8000024E0FFE71448808A208010
:100DA0001248408D28801148B0F8400030800F482C
:100DB000B0F8560016490988401A00B238800B482E
:100DC000B0F86C0013490988401A00B2A8F8000076
:100DD0000648B0F8820010490988401A00B2A9F804
:100DE0000000BDE8FC87000050000020B600002095
:100DF000A8000020000C01405400002056000020F4
:100E0000580000205A0000205C0000205E000020F6
:100E1000480000204A0000204C00002010B586B099
:100E20000120FFF7DFFE0220FFF7E6FE0020FFF7BC
:100E3000EDFE0020FFF7F4FE0020FFF70DFF00237A
:100E400007223721D020FFF7A7FD002306223721F4
:100E5000D020FFF7A1FD012305223721D020FFF785
:100E60009BFD012304223721D020FFF795FD0123AC
:100E700000223821D020FFF78FFD00240FE0322020
:100E800000F0A9FD0DF1160005A9031F04AACDE984
:100E90000010891F03A8FFF7FCFE601CC4B20A2CD7
:100EA000EDDB584A5849594800F0B6F806B010BD75
:100EB000F0B5DDE90545564EB68A0680544E768D6E
:100EC0000E80534EB6F840601680514EB6F856600C
:100ED0004E4F3F88F61B36B21E804D4EB6F86C6002
:100EE000494F3F88F61B36B22680494EB6F88260DD
:100EF000444F3F88F61B36B22E80F0BD2DE9F047F7
:100F000086B04FF00008C146C246002500260027E3
:100F100000203E4908803C4908803A490880002466
:100F20000FE0642000F057FD0DF1160005A9031F26
:100F300004AACDE90010891F03A8FFF7AAFE601CD0
:100F4000C4B2322CEDDB002421E0C82000F043FDC8
:100F50000DF1160005A9031F04AACDE90010891F91
:100F600003A8FFF796FEBDF90C000544BDF90E007D
:100F70000644BDF910000744BDF912008044BDF9D4
:100F800014008144BDF916008244601CC4B2642C74
:100F9000DBDB642098FBF0F000B21C490880642081
:100FA00099FBF0F000B21849088064209AFBF0F039
:100FB00000B214490880642095FBF0F596FBF0F62A
:100FC00097FBF0F7A919C81902F01AFC114908603B
:100FD0000C48B0F900200C48B0F900100B48B0F9EB
:100FE000000000F02DF8002008490880064908801C
:100FF000044908800A460449044800F00DF806B088
:10100000BDE8F0874C0000204A0000204800002086
:10101000B6000020500000202DE9F04105460E46A4
:101020001746414C00F049FE20882880A41C2088E7
:101030003080A41C2088388000F04BFEBDE8F08191
:101040002DE9F04105460E461746374C00F035FEB7
:10105000204600F078FEA9B2204600F074FFA41CE0
:10106000B1B2204600F06FFFA41CB9B2204600F0D8
:101070006AFFA41C00F02DFEBDE8F0812DE9F047C9
:1010800005460E4617469846DDE9089A274C00F0BB
:1010900014FE20882880A41C20883080A41C20886E
:1010A0003880A41C2088A8F80000A41C2088A9F877
:1010B0000000A41C2088AAF8000000F00AFEBDE889
:1010C000F0872DE9F04705460E4617469846DDE9BC
:1010D000089A164C00F0F1FD204600F034FEA9B24B
:1010E000204600F030FFA41CB1B2204600F02BFFD8
:1010F000A41CB9B2204600F026FFA41C1FFA88F1F8
:10110000204600F020FFA41C1FFA89F1204600F0C1
:101110001AFFA41C1FFA8AF1204600F014FF00F009
:10112000D8FDBDE8F087000000F0000800F40008DA
:1011300010B54FF40071FE4801F06DF9012800D19F
:1011400010BD0020FCE72DE9F04780460E4617460B
:101150000025012419E0F74830F81410601EF54A04
:1011600022F8101002F1160030F81420601EF14928
:10117000163121F8102001F1160030F81420601EFD
:10118000163121F81020601CC4B20A2CE3DB404663
:1011900002F036FB8246E8480168504602F052FAF7
:1011A000814602F011FB00B2E2494882304602F06B
:1011B00027FB8246E1480168504602F043FA814627
:1011C00002F002FB01B2DB480185384602F018FB51
:1011D0008246DB480168504602F034FA814602F04C
:1011E000F3FA01B2D348C1870025002405E0D148B5
:1011F00030F914000544601CC4B20A2CF7DB0A2045
:1012000095FBF0F000B2CB4988820025002406E06F
:10121000C848163030F914000544601CC4B20A2CCA
:10122000F6DB0A2095FBF0F001B2C24841850025AB
:10123000002406E0BF482C3030F914000544601C3F
:10124000C4B20A2CF6DB0A2095FBF0F001B2B948D3
:10125000A0F84010BB480078F0B3B648B0F91400CD
:10126000B949B1F90010884203DAB248808AB64918
:101270000880B048B0F92A00B449B1F9001088429A
:1012800003DAAC48408DB1490880AA48B0F9400063
:10129000AF49B1F90010884204DAA648B0F840001E
:1012A000AB490880A348B0F91400AA49B1F900106D
:1012B000884203DD9F48808AA64908809D48B0F98E
:1012C0002A00A549B1F90010884203DD9948408DF4
:1012D000A1490880974800E00BE0B0F940009F4921
:1012E000B1F90010884204DD9248B0F840009B49F3
:1012F0000880BDE8F0872DE9FC4104460D461646FE
:1013000000208DF805008DF804008DF803008DF89D
:1013100002008DF801008DF800006B4606220321C3
:101320003C20FFF799FA9DF803309DF8027043EADC
:1013300007231AB29DF805309DF8047043EA07238D
:1013400019B29DF801309DF8007043EA072318B2E6
:10135000FFF7F9FE7748808A20807648408D288004
:101360007448B0F840003080BDE8FC811CB5002412
:1013700009E001AA911E6846FFF7BDFFC82000F0F2
:101380002AFB601CC4B2322CF3DB1CBD70B50446D2
:101390000D462A4621463C20FFF7BFFA70BD654B3B
:1013A0009B8A0380634B5B8D0B80624BB3F84030AC
:1013B000138070473EB504466A4601A902A8FFF7AC
:1013C0009AFF6449B1F900105F4AB2F900208D1804
:1013D00005EBD571BDF90820A2EB610002F010FA0F
:1013E0005F49086020605C49B1F90010574AB2F9C2
:1013F00000208D1805EBD571BDF90420A2EB61002A
:1014000002F0FEF95749086060605449B1F90010D4
:101410004F4AB2F900208D1805EBD571BDF90020B7
:10142000A2EB610002F0ECF94F490860A0603EBDFC
:1014300010B50446072C00DD10BD6007010E012029
:10144000FFF7A4FF00BFF7E710B50446022C00DD4C
:1014500010BD21460220FFF799FF642000F0BBFA7F
:1014600000BFF5E710B5044614B10020FFF7ECFF0C
:101470004FF07E50304908603049086030490860BC
:1014800070210020FFF782FFA0210120FFF77EFFDF
:1014900000210220FFF77AFF10BD02468A4201DADE
:1014A000104670470846FCE710B504460A213C2068
:1014B000FFF7AFF920700B213C20FFF7AAF960700D
:1014C0000C213C20FFF7A5F9A07010BD2DE9F04FCD
:1014D00091B007460E4600200B900C900D904FF0F7
:1014E000010B082F7EDA002E7CD90AA8FFF7DCFF5B
:1014F0009DF82800482876D19DF829003428FAD193
:101500009DF82A003328F6D111210020FFF73EFF75
:101510003846FFF78DFF0120FFF796FF08AB062244
:1015200003213C20FFF798F99DF821001EE0000000
:10153000000C01403A0100207000002074000020DF
:10154000780000206C000020660000206800002069
:101550006A0000206000002062000020640000207B
:101560007C00002080000020840000209DF82010D6
:1015700040EA012000B2ADF838009DF825009DF842
:10158000241040EA012000B2ADF83A009DF8230093
:101590009DF8221040EA012000B2ADF83C004FF067
:1015A000000949E00120FFF74FFF08AB06220321A5
:1015B0003C20FFF751F99DF821009DF8201040EAEA
:1015C000012000B2ADF838009DF825009DF82410E8
:1015D00040EA012000B2ADF83A009DF823009DF8E2
:1015E000221001E039E135E140EA012000B2ADF816
:1015F0003C00BDF938100B9808440B90BDF93A1027
:101600000C9808440C90BDF93C100D9808440D90BE
:10161000BDF93C10BDF93A00FFF73FFF0346BDF9A5
:1016200038001946FFF739FF10F5805F02DC4FF0F4
:10163000000B03E009F10109B145B3D300BF12214A
:101640000020FFF7A3FE4FF0000946E00120FFF75E
:10165000FBFE08AB062203213C20FFF7FDF89DF8B6
:1016600021009DF8201040EA012000B2ADF83800BA
:101670009DF825009DF8241040EA012000B2ADF845
:101680003A009DF823009DF8221040EA012000B2A4
:10169000ADF83C00BDF938100B98401A0B90BDF91D
:1016A0003A100C98401A0C90BDF93C100D98401A55
:1016B0000D90BDF93C10BDF93A00FFF7EEFE034670
:1016C000BDF938001946FFF7E8FE10F5805F02DC2F
:1016D0004FF0000B03E009F10109B145B6D300BF9B
:1016E000304601F03BFECDE90401904931F9170085
:1016F00001F01DFE8E4A8F4BCDE9000101F042FE44
:10170000044600224FF0804301F03CFECDE9020187
:10171000DDE9042301F036FECDE9060101F0D8FD34
:101720008246304601F01AFE04460D467F4931F9E3
:10173000170001F0FCFD804A804BCDE9000101F06B
:1017400021FE00224FF08043CDE9020101F01AFE94
:1017500022462B46CDE9040101F014FECDE9060135
:1017600001F0B6FD8046BBF1000F6CD00B985045E0
:1017700069DB0B98404566DC0C98504563DB0C98A0
:10178000404560DC0D9850455DDB0D9840455ADCC6
:101790000B98B0FBF6F4204601F0E0FDCDE9040122
:1017A000624931F9170001F0C2FD0446644A654BF5
:1017B00001F0E8FDCDE90201DDE9042301F030FC90
:1017C000CDE9060101F0FAFB5F4908600C98B0FB17
:1017D000F6F4204601F0C2FDCDE90401534931F988
:1017E000170001F0A4FD0446554A564B01F0CAFD0E
:1017F000CDE90201DDE9042301F012FCCDE9060187
:1018000001F0DCFB514908600D98B0FBF6F420466E
:1018100001F0A4FDCDE90401444931F9170001F0BC
:1018200086FD04464A4A4B4B01F0ACFDCDE902016E
:10183000DDE9042301F0F4FBCDE9060101F0BEFB74
:101840004549086001E04FF0000B10210020FFF730
:101850009DFD04E04FF0000B01E04FF0000B102164
:101860000020FFF793FD11B0BDE8F08F10B50446DE
:10187000062C00DD10BDA006010E0020FFF786FD3E
:1018800000BFF7E71CB5002034490870FFF7EAFDF8
:1018900020210120FFF71AFE0020FFF7D5FD0620CA
:1018A000FFF7E4FFFFF762FD2D482E492E4B2F4A2C
:1018B000CDE900102E492F48FFF7E0FB1CBD0120A9
:1018C00026490870002028490880264908802449B4
:1018D00008802849088026490880244908807047E4
:1018E0001CB51F48B0F900001E49B1F90010CDE940
:1018F00000101D48B0F900301C48B0F900201C4809
:10190000B0F900101B48B0F90000FFF7DAFB002027
:101910001249087012481349134B144ACDE90010BC
:1019200013491448FFF7AAFB1CBD0000BE3900088C
:10193000043FF0033FF0E33F70F9966FF996F73FED
:101940008FC2F5285C8F02407000002074000020D8
:1019500048E17A14AE470140780000206C00002076
:101960006400002062000020600000206A00002067
:10197000680000206600002010B504466FF00400E7
:1019800000F05EF9E11704EB5171C9101F4A1170A4
:10199000104600784FF47A7148431D49088010BD05
:1019A00001461B4A12884A434FF0E0235A61002245
:1019B0009A6101221A6100BF4FF0E022106910F015
:1019C000010F02D010F4803FF6D000224FF0E02348
:1019D0001A619A61704701460C4A12784A434FF0E7
:1019E000E0235A6100229A6101221A6100BF4FF080
:1019F000E022106910F0010F02D010F4803FF6D001
:101A000000224FF0E0231A619A617047880000209D
:101A10008A00002010B54FF4A06000F0C1F810BD9E
:101A2000014600BF704700BF494A128812F0400FBC
:101A3000FAD0C2B2464B1B1D1A80704710B586B053
:101A40000446012144F2050000F008FF4FF4007045
:101A5000ADF8140003208DF8160018208DF817003B
:101A600005A93C4800F046FC4FF48060ADF8140036
:101A700004208DF8170005A9364800F03BFC25200E
:101A80008DF8000003208DF801008DF80200012080
:101A90008DF80300684600F088F801940020ADF846
:101AA0000800ADF80A00ADF80C00ADF810000C20ED
:101AB000ADF80E0001A9264800F07BFF012240F29C
:101AC0002551234801F00DF80121214800F0FDFFC8
:101AD00006B010BD10B540F225511D4801F0E9F8DF
:101AE00010B31B4801F065F8C4B21B48007810F031
:101AF000800F2BD11848007810F0400F0CD00A2C22
:101B000003D000201449087020E01348007840F00A
:101B100080001149087019E00D2C06D10E4800789C
:101B200040F040000C49087010E00B48007800F0CD
:101B30003F000A490C5408480078401C06490870C8
:101B4000084600783F2801DD0020087010BD000025
:101B500000380140000801408C0000207C0100207A
:101B60000948804709480047FEE7FEE7FEE7FEE731
:101B7000FEE7FEE7FEE7FEE7FEE7FEE7044805496D
:101B8000054A064B7047000059040008ED000008A4
:101B90002002002020080020200400202004002033
:101BA00031490143314A1160704770B5002100236B
:101BB0000F22C4780CB32D4C246804F4E064C4F5FF
:101BC000E064210AC1F10403CA40447804FA03F135
:101BD0008478144021430901254C0678A1550478E6
:101BE00004F01F050124AC4005786D114FF0E0268C
:101BF00006EB8505C5F8004109E0047804F01F05EF
:101C00000124AC401B4D0678761145F8264070BD86
:101C1000194A0A400243154B1B1F1A60704739B11D
:101C2000124A121D12680243104B1B1D1A6006E077
:101C30000E4A121D126882430C4B1B1D1A6070471E
:101C4000042808D14FF0E021096941F004014FF068
:101C5000E022116107E04FF0E021096921F0040161
:101C60004FF0E022116170470000FA050CED00E032
:101C700000E400E080E100E080FFFF1F014600205B
:101C8000FE4A106800F03800084310607047FB49B6
:101C9000096821F00801F94A1160114609680143F9
:101CA00011607047F549096821F01001F34A11608D
:101CB00011460968014311607047F148EF494860D7
:101CC000F04848607047EE48EC494860ED4848608D
:101CD0007047EA48006940F08000E84908617047B1
:101CE000E648006940F08000E4490861704704203C
:101CF000E249C96801F00101012901D101200EE08A
:101D0000DE49C96811F0040F01D0022007E0DB4969
:101D1000C96811F0100F01D0032000E004207047C3
:101D200000B502460423FFF7E2FF034603E0FFF796
:101D3000DEFF0346521E012B01D1002AF7D102B962
:101D40000523184600BD30B5044604254FF4302065
:101D5000FFF7E6FF0546042D17D1C848006940F09B
:101D60000200C649086108464461006940F040002D
:101D700008614FF43020FFF7D3FF0546BF480069E4
:101D800041F6FD710840BD490861284630BD10B5D7
:101D900004244FF43020FFF7C3FF0446042C16D16F
:101DA000B648006940F00400B4490861084600697B
:101DB00040F0400008614FF43020FFF7B1FF0446C7
:101DC000AE48006941F6FB710840AC490861204605
:101DD00010BD00B502460423FFF789FF034603E068
:101DE000FFF785FF0346521E012B01D1002AF7D1D0
:101DF00002B90523184600BD10B504244FF4302065
:101E0000FFF7E7FF0446042C16D19C48006940F018
:101E100004009A4908610846006940F040000861E2
:101E20004FF43020FFF7D5FF04469448006941F68F
:101E3000FB71084091490861204610BD00208F4980
:101E4000C96911F0020F01D0012000E000207047A5
:101E500030B5A5250424FFF7F1FF00B100254FF4AC
:101E60003020FFF75DFF0446042C3AD184488349B3
:101E70008860844888600846006940F02000086156
:101E80000846006940F0400008614FF43020FFF739
:101E900047FF0446042C1BD17848006941F6DF71E6
:101EA0000840764908610846006940F01000086162
:101EB00075480580E002FFF733FF0446052C10D07B
:101EC0006E48006941F6EF7108406C49086108E00E
:101ED000052C06D06948006941F6EF710840674952
:101EE0000861204630BDF0B504460D4604260027A3
:101EF000F002FFF715FF0646042E22D15F48006965
:101F000040F001005D4908612580F002FFF708FFFD
:101F10000646042E0ED1A71C280C3880F002FFF7CD
:101F2000FFFE06465548006941F6FE7108405349D8
:101F3000086106E05148006941F6FE7108404F49CA
:101F400008613046F0BD70B504460D460426F00227
:101F5000FFF7E6FE0646042E11D14848006940F01E
:101F60000100464908612580F002FFF7D9FE0646C8
:101F70004248006941F6FE71084040490861304618
:101F800070BD70B505460E460424E002FFF7C8FE9A
:101F90000446042C17D13A4838498860394888608B
:101FA0000846006940F0100008612E80E002FFF74B
:101FB000B7FE0446052C06D03048006941F6EF71A3
:101FC00008402E490861204670BD2DE9F0430446C3
:101FD0004FF6FF763746B046B1460425E443E6B2F5
:101FE000C4F30727C4F307484FEA1469E802FFF770
:101FF00097FE0546042D40D121482049886021489C
:1020000088600846006940F010000861FF2E06D085
:102010001D4808300680E802FFF782FE0546042DC1
:1020200008D1FF2F06D018480A300780E802FFF7D2
:1020300077FE0546042D0AD1B8F1FF0F07D01248EC
:102040000C30A0F80080E802FFF76AFE0546042D78
:102050000AD1B9F1FF0F07D00B480E30A0F800905D
:10206000E802FFF75DFE0546052D06D0034800692E
:1020700041F6EF7108400149086107E00020024085
:1020800023016745AB89EFCD00F8FF1F2846BDE867
:10209000F08330B5054604244FF43020FFF740FEAE
:1020A0000446042C41D15F485F4988605F488860DE
:1020B0000846006940F0200008610846006940F0C9
:1020C000400008614FF43020FFF72AFE0446042C3C
:1020D00022D15548006941F6DF7108405249086134
:1020E0000846006940F0100008611DB10020504909
:1020F000088002E0A5204E4908804FF43020FFF709
:102100000FFE0446052C10D04748006941F6EF71D8
:1021100008404549086108E0052C06D0424800699E
:1021200041F6DF71084040490861204630BDF0B5F6
:1021300005460E46174604243A483B4988603B480A
:102140008860E002FFF7ECFD0446042C19D1364804
:10215000006940F010003449086147F0F80030434E
:1021600028433349891C0880E002FFF7D9FD044663
:10217000052C06D02C48006941F6EF7108402A4929
:1021800008612046F0BD2848C0698008704726488D
:10219000006A704700202449096811F0200F01D01F
:1021A000012000E00020704729B11F4A1269024354
:1021B0001D4B1A6104E01C4A126982431A4B1A61D2
:1021C000704701460020012908D1174AD26912F050
:1021D000010F01D0012008E0002006E0124AD26879
:1021E0000A4201D0012000E0002070470E49C8607B
:1021F000704704200C49C96801F00101012901D18F
:1022000001200EE00849C96811F0040F01D0022036
:1022100007E00549C96811F0100F01D0032000E064
:10222000042070472301674500200240AB89EFCDB1
:1022300000F8FF1F10B50446CA48844208D10121A6
:10224000042000F025FB0021042000F021FB46E0E3
:10225000C548844208D10121082000F019FB002163
:10226000082000F015FB3AE0C048844208D1012163
:10227000102000F00DFB0021102000F009FB2EE0E3
:10228000BB48844208D10121202000F001FB00213D
:10229000202000F0FDFA22E0B648844208D1012156
:1022A000402000F0F5FA0021402000F0F1FA16E09D
:1022B000B148844208D10121802000F0E9FA0021D0
:1022C000802000F0E5FA0AE0AC48844207D1012101
:1022D000801500F0DDFA0021A01500F0D9FA10BD3C
:1022E00010B50121084600F0D3FA0021012000F0CA
:1022F000CFFA10BD2DE9F04102460025002600204E
:1023000000230024002791F803C00CF00F0591F87A
:1023100003C01CF0100F03D091F802C04CEA050571
:10232000B1F800C01CF0FF0F31D0146800202BE082
:102330004FF0010C0CFA00F3B1F800C00CEA0306F0
:102340009E4220D183004FF00F0C0CFA03F7BC43E0
:1023500005FA03FC4CEA040491F803C0BCF1280F11
:1023600006D14FF0010C0CFA00FCC2F814C00AE0D0
:1023700091F803C0BCF1480F05D14FF0010C0CFAE5
:1023800000FCC2F810C0401C0828D1D31460B1F87A
:1023900000C0BCF1FF0F34DD546800202EE000F1D6
:1023A000080C4FF0010808FA0CF3B1F800C00CEA71
:1023B00003069E4221D183004FF00F0C0CFA03F765
:1023C000BC4305FA03FC4CEA040491F803C0BCF1D9
:1023D000280F05D100F1080C08FA0CF8C2F8148097
:1023E00091F803C0BCF1480F07D100F1080C4FF081
:1023F000010808FA0CF8C2F81080401C0828CED357
:102400005460BDE8F0814FF6FF71018002218170B8
:102410000421C17070470246002093680B4201D02E
:10242000012000E0002070470146886880B27047B4
:1024300002460020D3680B4201D0012000E00020BA
:1024400070470146C86880B27047016170474161BA
:1024500070470AB1016100E041617047C160704797
:102460004FF480320A4382618161826182698269AC
:10247000704702460020424B18684FF680731840A0
:1024800040EA021008433E4B186070473D49C8615E
:102490007047F0B50A46002300240021002500F013
:1024A0000046B6F1004F02D1354EF16901E0344EDD
:1024B0007168C0F3034583B200F44016B6F5401FBF
:1024C00008D121F070612E4E766826F070662C4F90
:1024D0007E6012E000F48016B6F5801F06D1032658
:1024E00006FA05F4A14341F0706106E0460D36019D
:1024F00003FA06F6B14341F0706122B1460D360190
:1025000003FA06F6314300F00046B6F1004F02D15F
:102510001B4EF16101E01A4E7160F0BD30B5002232
:102520008B071C0F0F2303FA04F2154B08338C1092
:1025300053F824309343124C08348D1044F825305E
:1025400023468C1053F824308C07240F00FA04F42F
:1025500023430B4C08348D1044F8253030BD0A4914
:102560000860704700080140000C01400010014065
:102570000014014000180140001C014000200140EF
:102580000000014000002042DC002042DC480068DE
:1025900040F00100DA49086008464068D94908401F
:1025A000D749486008460068D7490840D4490860C0
:1025B0000846006820F4802008600846406820F43F
:1025C000FE0048604FF41F0088607047CC490968DE
:1025D00021F48031CA4A11601146096821F4802132
:1025E0001160B0F5803F03D0B0F5802F0ED106E02A
:1025F000C349096841F48031C14A116007E0C0490C
:10260000096841F4A021BE4A116000E000BF00BF8C
:10261000704710B501460022002300204A11012A0C
:1026200002D1B74C236806E0022A02D1B44C236AD7
:1026300001E0B34C636A01F01F02012494401C4284
:1026400001D0012000E0002010BD70B5002400255D
:10265000002600BF3120FFF7DCFF0646641CB4F5FE
:10266000A06F01D0002EF5D03120FFF7D2FF08B1C6
:10267000012500E00025284670BD01460020A04A43
:10268000106820F0F80040EAC100106070479F49D0
:102690000860704702460020994B586820F47C106F
:1026A00042EA01031843964B586070479749086601
:1026B000704701460020924A506820F0030008430A
:1026C000506070478E48406800F00C00704701462B
:1026D00000208B4A506820F0F0000843506070479B
:1026E00001460020864A506820F4E06008435060AC
:1026F000704701460020824A506820F4605040EA4A
:10270000C1005060704729B17D4A527A02437C4B28
:102710005A7206E07A4A527AC343DBB21A40784BC7
:102720005A7270477A490860704701460020744A1F
:10273000506820F440400843506070470021754ABB
:1027400011706F4A82F82010012802D0042808D1A5
:1027500003E001216F4A117004E005216D4A1170F8
:1027600000E000BF00BF70476B49086070476449D4
:10277000096A0143624A1162704767494439086037
:10278000704730B500210022002400235C4D6D68A5
:1027900005F00C0121B1042905D0082923D105E059
:1027A0005E4D056022E05D4D05601FE0544D6D6893
:1027B00005F47012524D6D6805F48034022505EB66
:1027C00092421CB9564D554305600BE04C4D6D6867
:1027D00015F4003F03D0524D5543056002E04F4DC4
:1027E0005543056002E04D4D056000BF00BF444DFC
:1027F0006D6805F0F00109094A4D6B5C0568DD4024
:1028000045603F4D6D6805F4E061090A454D6B5C1C
:102810004568DD4085603A4D6D6805F46051C90A30
:10282000404D6B5C4568DD40C560354D6D6805F415
:102830004041890B3C4D6B5CC568B5FBF3F5056108
:1028400030BD29B12E4A526902432D4B5A6104E032
:102850002B4A526982432A4B5A61704729B1284A50
:1028600092690243264B9A6104E0254A92698243A9
:10287000234B9A61704729B1214AD2690243204B08
:10288000DA6104E01E4AD26982431D4BDA61704767
:1028900029B11B4AD2680243194BDA6004E0184A96
:1028A000D2688243164BDA60704729B1144A126924
:1028B0000243134B1A6104E0114A12698243104B20
:1028C0001A61704714494039086070470F49C8645D
:1028D00070470B49C87170470948406A40F08070E2
:1028E00007494862704701460020054A92680A423B
:1028F00001D0012000E00020704701498872704734
:10290000001002400000FFF8FFFFF6FE0000424208
:10291000D8004242201002408004424200127A0055
:1029200000093D0094000020A400002010B50446DA
:10293000FC48844209D101218803FFF7A9FF002147
:102940004FF48040FFF7A4FF32E0F748844209D1FA
:1029500001214804FFF7A9FF00214FF40030FFF7E1
:10296000A4FF25E0F148844209D101218804FFF742
:102970009CFF00214FF48020FFF797FF18E0EC4800
:10298000844209D10121C804FFF78FFF00214FF4D1
:102990000020FFF78AFF0BE0E648844208D10121BE
:1029A0000805FFF782FF00214FF48010FFF77DFF3D
:1029B00010BD2DE9F04786B005460E460024A2461C
:1029C00000BFA1460027B08900B100BF2F462C8A66
:1029D0004CF6FF700440F08804432C82AC894EF61C
:1029E000F3100440B08831890843718908430443D7
:1029F000AC81AC8A4FF6FF400440B0890443AC82FE
:102A000001A8FFF7BEFEC748874202D1DDF810A03B
:102A100001E0DDF80CA0A88910F4004F08D00AEB03
:102A2000CA0000EB0A1031684900B0FBF1F807E07A
:102A30000AEBCA0000EB0A1031688900B0FBF1F81C
:102A40006420B8FBF0F004012009642101FB108927
:102A5000A88910F4004F08D0322000EBC900B0FB69
:102A6000F1F000F00700044308E0322000EB091009
:102A70006421B0FBF1F000F00F0004432C8106B09C
:102A8000BDE8F0874FF41651016000218180C180BC
:102A900001810C21418100218181704710B50246DE
:102AA0000020108A4FF2FF0318400B884C88234304
:102AB0008C882343CC8823431843108210BD002107
:102AC000018041808180C180704721B1828942F4B8
:102AD0000052828104E082894DF6FF731A408281A0
:102AE0007047F0B503460024002600250020A1F51C
:102AF00010676A3F00D100BF1846C1F3421401F0CD
:102B00001F06012707FA06F5012C01D10C3004E05D
:102B1000022C01D1103000E014301AB107682F43A5
:102B2000076002E00768AF430760F0BD10B51AB157
:102B3000838A0B43838204E0838ACC43A4B223407C
:102B4000838210BD028A4FF6F0731A400282028A15
:102B50000A430282704782894FF2FF731A408281D2
:102B600082890A438281704721B1828942F0020240
:102B7000828104E082894FF6FD731A40828170479A
:102B8000028A4FF6DF731A400282028A0A430282E7
:102B9000704721B1028A42F48042028204E0028A34
:102BA0004BF6FF731A4002827047C1F3080282801D
:102BB000704701468888C0F308007047818941F05A
:102BC000010181817047028BD2B20283028B42EAFB
:102BD000012202837047028B02F47F420283028B40
:102BE0000A430283704721B1828A42F02002828226
:102BF00004E0828A4FF6DF731A408282704721B167
:102C0000828A42F01002828204E0828A4FF6EF73D9
:102C10001A408282704721B1828A42F00802828281
:102C200004E0828A4FF6F7731A408282704721B11E
:102C3000828942F40042828103E08289C2F30E025B
:102C40008281704721B1828A42F40062828204E06C
:102C5000828A4FF2FF731A4082827047828A4FF64F
:102C6000FB731A408282828A0A438282704721B1B2
:102C7000828A42F00202828204E0828A4FF6FD7369
:102C80001A408282704702460020B1F5007F00D1D1
:102C900000BF13880B4201D0012000E000207047E4
:102CA00001F40072B2F5007F00D100BFCA43028078
:102CB000704770B502460024002300250020A1F5CE
:102CC00010666A3E00D100BFC1F3421501F01F0338
:102CD000012606FA03F3012D02D19689334006E05E
:102CE000022D02D1168A334001E0968A33400C123D
:102CF000012606FA04F41688344013B10CB1012001
:102D000000E0002070BD10B500220023A1F5106482
:102D10006A3C00D100BF0A1201249440A3B2DC43F4
:102D2000048010BD003801400044004000480040CD
:102D3000004C004000500040704700000FB40449B0
:102D400010B503AA029800F0D7F810BC5DF814FB88
:102D5000900000202DE9F04104460E4600200AE0D4
:102D6000E1682046884738B3252806D0D4E90121F8
:102D70009047206A401C2062F2E7E1682046002765
:102D80008847050018D0A5F14100192802D8203540
:102D90004FF400673246294620462760FDF7E0F9E8
:102DA00040B1012804D0F61D26F007060836D7E703
:102DB000361DD5E72846D9E7206ABDE8F081000036
:102DC0002DE9F0410746002510687529394616A4FB
:102DD00011D0AFF30080002803DAC0F1000013A483
:102DE00007E039688A0701D511A402E0490704D534
:102DF00010A4012501E0AFF3008000210A2307F1B0
:102E0000240607E0B0FBF3F203FB120030307054ED
:102E10001046491C0028F5D12B4622463846BDE80D
:102E2000F04100F00DB80000000000002D0000008F
:102E30002B0000002000000070477047704770476B
:102E40002DE9F0470D4604469246994600F12408C4
:102E50000168880604D5E06921F01001216000E0D6
:102E60000120A84202DDA0EB050700E00027A169D0
:102E700007EB050202EB0900A1EB0000A06120684E
:102E8000C00602D42046AFF30080002608E0D4E953
:102E900001211AF806009047206A401C761C206227
:102EA0004E45F4DB2068C0060AD52046AFF300800B
:102EB00006E0D4E9012130209047206A401C2062BE
:102EC000381EA7F10107F4DC07E0D4E9012118F866
:102ED00005009047206A401C2062281EA5F10105CC
:102EE000F3DC2046AFF300802068000602D5022004
:102EF000BDE8F0870120FBE7074B70B50C467B442B
:102F000000F011F80546204600F020F810B14FF00F
:102F1000FF3070BD284670BD25EBFFFF01694A1CDC
:102F200002610878704700B58FB0CDE9013100210A
:102F3000059105497944CDE9031011466846FFF72C
:102F400009FF0FB000BD0000E5FFFFFFC06800F003
:102F500080007047754600F029F8AE4605006946C6
:102F6000534620F00700854618B020B5FEF706FE50
:102F7000BDE820404FF000064FF000074FF000087A
:102F80004FF0000B21F00701AC46ACE8C009ACE8FB
:102F9000C009ACE8C009ACE8C0098D4670470446DA
:102FA000AFF300802046FDF7EFF8000000487047BF
:102FB000BC01002000487047C001002021F0004201
:102FC000A2F16052B2F5801F01F0004328BFD2F198
:102FD0007F6C0BD95FEA001C43EAC20242EB5070DF
:102FE00018BF704728BF20F001007047B2F5801F5E
:102FF000BCBF184670474FEA410C1CF5001F02D2B7
:10300000084600F062BC70B500F066FA0000008966
:10301000FFF7F6BF4FF00040A0F5800070470000BA
:103020002DE9C04130B4DFF8A0C23CEA111418BF4A
:103030003CEA131400F0EC8081EA03051CEA111449
:1030400044EAD57418BF1CEA131500F0C780A4EB3E
:1030500005044FF0004545EAC12145EAC32341EA92
:10306000505143EA525304F17F74994204F50034FD
:103070004FEAC0204FEAC22208BF904200F09C8075
:103080004FEA13650FF24016765D4FEA134506FBD3
:1030900005F7C7F1807706FB07F74FEAD737A7FB9D
:1030A00003687642C8F58038A7FB06CE38BFA8F182
:1030B000010807FB08E64FF0000EA6FB028CE6FBBA
:1030C00003CEDCF1000CCEF1004E38BFAEF1010EA4
:1030D000A6FB0C584FF000074FF00005E6FB0E87EB
:1030E000A1FB08C6A0FB07CE16EB0E0645F10005B6
:1030F000E1FB076515F1E04E7EBFA4F580345FEA81
:1031000046066D4116F1800745F100054FEA172785
:103110004FEA066647EA0567A6F1DE46B6F1805F2C
:103120004FEA15251FD9384624F0010C05EBC47170
:10313000BCF1FE6F01EB0C1102D8F0BCBDE80081C0
:1031400024425CBF01F5801E9EEAC47F02D4F0BC1D
:10315000BDE80081244238D4F0BCA1F1C041BDE8F3
:10316000004100F007BA4FEAD22242EA43524FEA46
:10317000D323A7FB02864FEAD02040EA415007FB49
:1031800003661EEA0E0F4FEAD12105FB026658BF07
:10319000A6EB0056B6EB00564FEA520E4EEAC37E3F
:1031A00018EB0E0E56EB530EBDD518EB02085E4120
:1031B0007F1C55F10005B6E74FF480154FF000076E
:1031C0004FF000064FF00008ADE7F0BC4FF00000F4
:1031D00001F1C04101F00041BDE8008111EA0C1F7E
:1031E0000CEA131500D00CE013EA0C1F00F0258048
:1031F0004FF00000F0BC81EA030101F00041BDE89E
:103200000081F0BCBDE8004181EA030100F0B2B9E1
:10321000F0BCBDE8004170B500F05EF9097EFC3EEF
:1032200000F007B881EA03014FF0000001F000410F
:10323000704781EA030100F09DB9F0BCBDE8004190
:103240004FF0000021497047FFFDFBF9F7F5F4F25C
:10325000F0EEEDEBE9E8E6E4E3E1E0DEDDDBDAD831
:10326000D7D5D4D3D1D0CFCDCCCBCAC8C7C6C5C48F
:10327000C2C1C0BFBEBDBCBBBAB9B8B7B6B5B4B3A6
:10328000B2B1B0AFAEADACABAAA9A8A8A7A6A5A491
:10329000A3A3A2A1A09F9F9E9D9C9C9B9A99999855
:1032A0009797969595949393929191908F8F8E8EF8
:1032B0008D8C8C8B8B8A8989888887878685858485
:1032C00084838382828181800000FF070000F87F71
:1032D0004FEA41034FEA5353A3F58063D3F11E0332
:1032E000C8BFD3F1210C0CDD4FF0004242EAC122ED
:1032F00042EA505232FA03FC8CEAE17CACEBE1701A
:103300007047102BC4BF0020704703F5787CBCF1D8
:10331000FF3F04D06FF0004282EA2100704770B591
:1033200000F0DAF84992248000207047F2E710F0AC
:10333000004248BF4042B0FA80F310FA03F10AD0CD
:10334000C3F11D0303F580634FEA415002EB0352C2
:1033500002EBD12170474FF000007047B0FA80F3C4
:1033600010FA03F10AD0C3F11D0303F580634FEA9D
:1033700041504FEA035202EBD12170474FF0000059
:1033800070470000DFF848C170B51CEA111E1EBF6F
:103390001CEA13159EEA0C0F95EA0C0F00F06F80E3
:1033A00081EA030423EA4C134EEAD47E21EA4C114D
:1033B00041F4801143F48013AE44A1FB024CA0FB06
:1033C0000365AEF17F7E361955EB0C05A1FB034C6E
:1033D0004CF10003A0FB021C16EB0C06654153F1F7
:1033E0000003094218BF46F0010613F4007F0BD119
:1033F0004FEA03314FEA0530340341EA155140EA00
:1034000016506FF003020AE04FEAC3214FEAC520CD
:10341000F40241EA555140EA56506FF0020202EBC5
:103420002E4201EB025585EACE710AD05FEA440CC8
:1034300018BF24F0004450F1000041F1000120EADF
:10344000D47040F2FE7C624500D270BDA84214BF29
:103450004FF080444FF04044002E08BF0024BEF1DE
:10346000806FA8BFA1F1C041BDE8704080F28280AA
:103470004FF0000001F1C04101F0004170479EEAA9
:103480000C0F0CEA131518BF95EA0C0F06D04FF07D
:10349000000081EA030E0EF0004170BD00F01CF840
:1034A0008900013E00F007B800F009B84FEA430C6C
:1034B0005FEA5C5C08D081EA030100F05BB84FEA88
:1034C000410C5FEA5C5CF6D14FF0000001497047A7
:1034D0000000FF070000F87F0EF1020E2EF0030E31
:1034E0005EF8046B364205D4012A43EB030515F55B
:1034F000001F12D8012841EB010C1CF5001F0CD84D
:103500000ED14FEAD17C15F5001F0CEB4C0C0CF1E1
:10351000020C08BF4CEBD37C04E04FF0080C01E038
:103520004FEAD37C0CEB4C0526FA05F606F00706AD
:10353000B6F1040C06D20EEB860CBDE870404CF0E0
:10354000010C6047DFE80CF0090B02024FF000416C
:103550004FF00000A1F5002170BD1946104601286A
:1035600051EB010418BFD4F5001484BF002001F012
:10357000004170BD0808A0F500114FEA3101704705
:1035800090EA010F48BF81F0004100F1AA81421A80
:103590003CBF801A89184FEAD0524FF07F4C1CEA8A
:1035A000410FA2EBD15318BF9CEA026F00F03B80A1
:1035B0004FF0004C4CEA00204CEA012121FA03FCB8
:1035C00010EB0C0C1ED202F1FF325FEA1C2040EB24
:1035D000C25038BF70471CF07F0F4FEA400C18BF35
:1035E000BCF17F4F38BF7047C3F12003994008BF3B
:1035F00020F00100BCF17F4F38BF7047A0F1C04000
:1036000000F063B94FEA3C00000A40EBC25028BF0B
:103610001CF0FF0F4FEA400CE6D018BFBCF17F4F03
:1036200038BF7047EAE79CEA026F05D010EA5C0FEA
:1036300008BF00F00040704710B500F0F9F800BF77
:1036400064FBBE3E4FF47F0C1CEAD0121EBF1CEA86
:10365000D11392EA0C0F93EA0C0F00F0858090EAE8
:10366000010F48BF42F4807240F4000C41F40000A6
:103670002CF07F4120F07F4000B58142A2EB030295
:103680000FF2081CACEB504EC0F100009EF800E0B9
:103690004FEA4E0E00FB0EFC38BF49004FEA2C1CCF
:1036A00002F5FA020CFB0EF34FEACE1E4FEA112C84
:1036B0004FEAC1210EEB635E42EB22420EFB0CFC93
:1036C0004FEA1C5300FB03114FEA112C4FEA013162
:1036D0000EFB0CFC4FEADC4C00FB0C11C14228BF76
:1036E00009184CEB03335DF804EB10EB410143EB9D
:1036F000C250B2F57C0F38BF704729D512F0F00FD9
:103700001CBF00F1C04000F0004070470081828380
:103710008485868788898B8C8D8E8F9192939596E0
:1037200097999A9C9D9FA0A2A3A5A7A8AAACAEB06A
:10373000B2B3B5B7B9BCBEC0C2C5C7C9CCCED1D46F
:10374000D7D9DCDFE2E6E9ECF0F3F7FAFE0000009F
:103750004FEA400C0CF1807CBCF17E4F28BF7047D3
:10376000B0F1C04000F0B1B890EA010F0CEAD113FB
:1037700048BF42F48072624538BF634507D213F4F4
:103780007F0F16D080EA010000F00040704710B5AE
:1037900000F04EF8097EFC3E00F005B880EA01001A
:1037A00000F00040704780EA010000F0004000F0A7
:1037B0008CB812F47F0F04BF0248704780EA010002
:1037C00000F083B80000C07F41000B0ED3F19E02D1
:1037D00008D950F400034FEA032323FA02F048BF4C
:1037E0004042704710B500F023F800BF4992248092
:1037F000002070476FF0004282EA2000704700000E
:1038000010F0004148BF4042B0FA80F310FA03F2D2
:10381000C3F19D030BD051EAC35101EB12205306B3
:1038200038BF704700F1010008BF20F00100704769
:103830000EF1020E2EF0030E5EF8044B244204D467
:103840004FEA4102B2F17F4F11D84FEA4003B3F182
:103850007F4F0CD80ED14FEAD07CB2F17F4F0CEBEA
:103860004C0C0CF1020C08BF4CEBD17C04E04FF087
:10387000080C01E04FEAD17C0CEB4C0324FA03F472
:1038800004F00704B4F1040C06D20EEB840CBDE87E
:1038900010404CF0010C6047DFE80CF00708020212
:1038A0004FF00040A0F5800010BD0846420018BF50
:1038B000D2F1807288BF00F0004010BD10B5FFF754
:1038C00079FB4FF00001016010BDFF2141EAD050AB
:1038D000C005704790EA010F48BF81F000413FF5F5
:1038E00056AE421A04D882F00042A0EB0200114406
:1038F0004FEAD0524FF07F4C1CEA410FA2EBD1535C
:1039000018BF9CEA026F4AD04FF0004C4CEA0020EE
:103910004CEA012121FA03FCB0EB0C0C0FD412F09D
:10392000FE0F36D05FEA4C001DD5001240EBC250AE
:1039300038BF70471CF03F0F18BF70470BE0A2F173
:1039400001025FEA1C2040EBC25038BF70471CF0F8
:103950007F0F18BF7047C3F12003994014BF401E6A
:1039600020F00100704780084FEA122308BF70471B
:10397000B0FA80FCA2EB0C02CCF1280C60FA0CF03F
:1039800093EA122F04BF00EBC25070474FEAC37096
:103990007047130A5FEADC1008BF7047F6E79CEA3D
:1039A000026F04D010EA5C0F08BF0020704710B50A
:1039B000FFF73EFF40DFF63E81F0004070475A05BA
:1039C000420434039402B80186014A01E600000073
:1039D000F039000800000020A800000028010008BD
:1039E000983A0008A8000020780700004401000869
:1039F00000000000000000000000000000000000C7
:103A000000000000000000000000000000000000B6
:103A100000000000000000000000000000000000A6
:103A20000000000000A24A040000000000000000A6
:103A3000010203040607080900000000000000005E
:103A40000000000000000000000000000000000076
:103A50000000000000000000000000000000000066
:103A60000000000000000000000000000000000056
:103A70000000000000000000000000000000000046
:103A80000000000000000000010203040102030422
:083A90000607080902040608FC
:04000005080000ED02
:00000001FF
